A51 MACRO ASSEMBLER  ANIMATION                                                            06/22/2018 15:19:33 PAGE     1


MACRO ASSEMBLER A51 V8.2.7.0
OBJECT MODULE PLACED IN .\Objects\animation.obj
ASSEMBLER INVOKED BY: C:\Keil_v5\C51\BIN\A51.EXE animation.asm SET(SMALL) DEBUG PRINT(.\Listings\animation.lst) OBJECT(.
                      \Objects\animation.obj) EP

LOC  OBJ            LINE     SOURCE

0000                   1     ORG 0000H
0000 74FF              2             MOV A,#0FFh
0002 F590              3             MOV P1,A
0004 C3                4             CLR C
0005                   5             START:
0005 33                6             RLC A
0006 F590              7             MOV P1,A
0008 B3                8             CPL C
0009 110D              9             ACALL DELAY
000B 80F8             10             SJMP START
                      11             
000D                  12             DELAY:
000D 793C             13             MOV R1,#60
000F                  14             DEL1:
000F 7A3C             15             MOV R2,#60
0011                  16             DEL2:
0011 7B14             17             MOV R3,#20
0013                  18             DEL3:
0013 DBFE             19             DJNZ R3,DEL3
0015 DAFA             20             DJNZ R2,DEL2
0017 D9F6             21             DJNZ R1,DEL1
                      22             
0019 22               23             RET
                      24             END
                                     
                                     
A51 MACRO ASSEMBLER  ANIMATION                                                            06/22/2018 15:19:33 PAGE     2

SYMBOL TABLE LISTING
------ ----- -------


N A M E             T Y P E  V A L U E   ATTRIBUTES

DEL1 . . . . . . .  C ADDR   000FH   A   
DEL2 . . . . . . .  C ADDR   0011H   A   
DEL3 . . . . . . .  C ADDR   0013H   A   
DELAY. . . . . . .  C ADDR   000DH   A   
P1 . . . . . . . .  D ADDR   0090H   A   
START. . . . . . .  C ADDR   0005H   A   


REGISTER BANK(S) USED: 0 


ASSEMBLY COMPLETE.  0 WARNING(S), 0 ERROR(S)
