BL51 BANKED LINKER/LOCATER V6.22.2.0                                                    07/08/2018  23:47:00  PAGE 1


BL51 BANKED LINKER/LOCATER V6.22.2.0, INVOKED BY:
C:\KEIL_V5\C51\BIN\BL51.EXE .\Objects\onechar.obj TO .\Objects\onechar PRINT (.\Listings\onechar.m51)


INPUT MODULES INCLUDED:
  .\Objects\onechar.obj (ONECHAR)


LINK MAP OF MODULE:  .\Objects\onechar (ONECHAR)


            TYPE    BASE      LENGTH    RELOCATION   SEGMENT NAME
            -----------------------------------------------------

            * * * * * * *   D A T A   M E M O R Y   * * * * * * *
            REG     0000H     0008H     ABSOLUTE     "REG BANK 0"

            * * * * * * *   C O D E   M E M O R Y   * * * * * * *
            CODE    0000H     0005H     ABSOLUTE     



SYMBOL TABLE OF MODULE:  .\Objects\onechar (ONECHAR)

  VALUE           TYPE          NAME
  ----------------------------------

  -------         MODULE        ONECHAR
  C:0000H         SYMBOL        NAIMUL
  D:0090H         SYMBOL        P1
  C:0000H         LINE#         3
  C:0003H         LINE#         4
  -------         ENDMOD        ONECHAR

******************************************************************************
* RESTRICTED VERSION WITH 0800H BYTE CODE SIZE LIMIT; USED: 0005H BYTE ( 0%) *
******************************************************************************

Program Size: data=8.0 xdata=0 code=5
LINK/LOCATE RUN COMPLETE.  0 WARNING(S),  0 ERROR(S)
